:100000000C943A000C94BA020C94BA020C94BA0202
:100010000C94BA020C94BA020C94BA020C94BA0270
:100020000C94BA020C94BA020C94BA020C94BA0260
:100030000C94BA020C94BA020C94BA020C94BA0250
:100040000C9488010C94BA020C94BA020C94BA0273
:100050000C94BA020C94BA020C94BA020C94BA0230
:100060000C94BA020C94BA02010001070005820147
:1000700007010C8011241FBECFEFD8E0DEBFCDBF3B
:10008000E8E6F0E040E017C0B591A59135912591E3
:10009000059107FD0CC095918591EF01F92FE82F8F
:1000A00005900D92A217B307D9F7FE0104C01D9267
:1000B000A217B307E1F7E437F40731F70E946602AD
:0800C0000C948902F894FFCFB3
:1000C80010C00E949B0258F00E94940240F029F44C
:1000D8005F3F29F00C94A90251110C94A3020C94CF
:1000E800B7020E94160268F39923B1F3552391F3DE
:1000F800951B550BBB27AA2762177307840738F08F
:100108009F5F5F4F220F331F441FAA1FA9F335D0EB
:100118000E2E3AF0E0E832D091505040E695001C9F
:10012800CAF72BD0FE2F29D0660F771F881FBB1F59
:10013800261737074807AB07B0E809F0BB0B802D37
:10014800BF01FF2793585F4F3AF09E3F510578F063
:100158000C94A9020C94A3025F3FE4F3983ED4F3F5
:10016800869577956795B795F7959F5FC9F7880F37
:10017800911D9695879597F90895E1E0660F771F89
:10018800881FBB1F621773078407BA0720F0621B1A
:0E019800730B840BBA0BEE1F88F7E0950895E9
:1001A6000FC00E94940238F00E949B0220F0952313
:1001B60011F00C94A9020C94B70211240C94A3021A
:1001C6000E94160270F3959FC1F3950F50E0551FDC
:1001D600629FF001729FBB27F00DB11D639FAA2796
:1001E600F00DB11DAA1F649F6627B00DA11D661FE5
:1001F600829F2227B00DA11D621F739FB00DA11D06
:10020600621F839FA00D611D221F749F3327A00DBF
:10021600611D231F849F600D211D822F762F6A2F5B
:1002260011249F5750409AF0F1F088234AF0EE0FC0
:10023600FF1FBB1F661F771F881F91505040A9F7ED
:100246009E3F510580F00C94A9020C94A3025F3FD7
:10025600E4F3983ED4F3869577956795B795F79529
:10026600E7959F5FC1F7FE2B880F911D96958795A1
:0402760097F9089557
:10027A00823001F12CF4882349F0813089F03DC0A5
:10028A00843061F10CF1853099F137C080E090E05B
:10029A00A8ECB2E4FB0180839183A283B3832DC0CF
:1002AA0080E090E0A0EAB1E4FB0180839183A2831D
:1002BA00B38323C080E090E0A0E2B2E4FB01808334
:1002CA009183A283B38319C080E090E0A0E7B2E4EF
:1002DA00FB0180839183A283B3830FC080E090E007
:1002EA00A0EAB2E4FB0180839183A283B38305C0B1
:1002FA00FB011082118212821382FB0160817181DB
:06030A0082819381089539
:100310001F920F920FB60F9211242F933F934F937A
:100320005F936F937F938F939F93AF93BF93EF935D
:10033000FF9320E030E048EC52E4609107017091B7
:1003400008018091090190910A010E94AF0220E00A
:1003500030EC4FE754E40E94B3020E94C10167BD34
:10036000FF91EF91BF91AF919F918F917F916F918D
:100370005F914F913F912F910F900FBE0F901F9063
:020380001895CE
:100382000E941E0288F09F5798F0B92F9927B75103
:10039200B0F0E1F0660F771F881F991F1AF0BA9527
:1003A200C9F714C0B13091F00E94A202B1E00895E1
:1003B2000C94A202672F782F8827B85F39F0B93FD3
:1003C200CCF3869577956795B395D9F73EF49095DA
:0E03D2008095709561957F4F8F4F9F4F0895D6
:1003E000CF93DF93CDB7DEB727970FB6F894DEBF74
:1003F0000FBECDBF97E0E0E0F1E0DE011196019085
:100400000D929A95E1F7E1E0F0E0EC0FFD1FE80FA7
:10041000F11D87FDFA95808188B927960FB6F8946B
:0C042000DEBF0FBECDBFDF91CF9108956D
:10042C0057FD9058440F551F59F05F3F71F0479599
:10043C00880F97FB991F61F09F3F79F0879508957E
:10044C00121613061406551FF2CF4695F1DF08C09D
:10045C00161617061806991FF1CF869571056105BA
:04046C000894089553
:10047000FC01489908C080818150808318160CF0D7
:100480001082489BFECF499909C080818F5F80838D
:10049000853014F085E08083499BFECF80810895EC
:1004A0008AB180648AB98AB18C7F8AB987B18F6337
:1004B00087B984B5836884BD85B5826085BDEEE665
:0C04C000F0E080818160808317BC08950B
:1004CC000E94500278948BE091E00E94380267E021
:1004DC0071E080910B010E943D0180910B010E9403
:0404EC00F001F1CF5B
:1004F000092E0394000C11F4882352F0BB0F40F432
:10050000BF2B11F460FF04C06F5F7F4F8F4F9F4F71
:0205100008954C
:10051200EC010E94BF020E94BE02CE010E94C002F4
:06052200CE010E94BC02A4
:0E05280000240A9416161706180609060895F0
:0E05360000240A9412161306140605060895F2
:0E054400E894BB2766277727CB0197F9089527
:0C05520097F99F6780E870E060E0089572
:08055E000E9464000C94780275
:080566000E94D3000C947802FE
:06056E009FEF80EC0895F0
:040574000C940000E3
:040578000E9462007B
:02057C000895E0
:02057E000895DE
:020580000895DC
:070582000103070F1F3F7F7B
:00000001FF
